:020000040800F2
:1000000000000220B51800080519000805190008AD
:10001000051900080519000805190008000000006E
:1000200000000000000000000000000005190008AA
:10003000051900080000000005190008051900084E
:100040000519000805190008051900080519000818
:100050000519000805190008051900080519000808
:1000600005190008051900080519000805190008F8
:1000700005190008051900080519000805190008E8
:1000800005190008051900080519000805190008D8
:1000900005190008051900080519000805190008C8
:1000A00005190008051900080519000805190008B8
:1000B00005190008051900080519000805190008A8
:1000C0000519000805190008051900080519000898
:1000D0000519000805190008051900080519000888
:1000E0000519000805190008051900080519000878
:1000F0000519000805190008051900080519000868
:100100000519000805190008051900080519000857
:1001100005190008051900086917000805190008E5
:100120000519000805190008051900080519000837
:100130000519000800000000000000000519000873
:100140000519000805190008051900080519000817
:100150000519000805190008051900080519000807
:1001600005190008051900080519000805190008F7
:10017000051900080519000805190008000000000D
:100180000000000005190008000000000000000049
:100190000519000800000000000000000519000813
:1001A0000000000000000000000000000519000829
:1001B00005190008051900080519000805190008A7
:0401C0000519000815
:1001C40010B5054C237833B9044B13B10448AFF38D
:1001D40000800123237010BD1400002000000000E3
:1001E400CC19000808B5034B1BB103490348AFF30E
:1001F400008008BD0000000018000020CC19000891
:1002040080B500AF0E4A0E4B1B6843F400731360B5
:100214000B4A0B4B1B6843F480631360084A084B7A
:100224001B6843F480731360032000F0ECF80F2084
:1002340001F02AFA00F0C0FA0023184680BD00BF7E
:10024400003C024080B400AF044B1B680133034AF6
:10025400136000BFBD465DF8047B7047300000208A
:1002640080B400AF034B1B681846BD465DF8047BA1
:10027400704700BF3000002080B584B000AF7860C4
:10028400FFF7EEFFB8607B68FB60FB68B3F1FF3FEC
:1002940002D0FB680133FB6000BFFFF7E1FF0246B9
:1002A400BB68D21AFB689A42F7D300BF1037BD4629
:1002B40080BD000080B485B000AF78607B6803F037
:1002C4000703FB600C4BDB68BB60BA684FF6FF03A7
:1002D4001340BB60FB681A02BB68134343F0BF635F
:1002E40043F40033BB60044ABB68D36000BF1437D7
:1002F400BD465DF8047B704700ED00E080B400AFBC
:10030400044BDB681B0A03F007031846BD465DF87F
:10031400047B704700ED00E080B483B000AF034677
:10032400FB71094997F907305B09FA7902F01F025A
:10033400012000FA02F241F8232000BF0C37BD4629
:100344005DF8047B704700BF00E100E080B483B037
:1003540000AF03463960FB7197F90730002B0BDAC5
:100364000D49FB7903F00F03043B3A68D2B2120142
:10037400D2B20B441A7609E0084997F907303A6873
:10038400D2B21201D2B20B4483F8002300BF0C375F
:10039400BD465DF8047B704700ED00E000E100E03D
:1003A40080B489B000AFF860B9607A60FB6803F08C
:1003B4000703FB61FB69C3F10703042B28BF042374
:1003C400BB61FB690433062B02D9FB69033B00E0E4
:1003D40000237B610122BB6902FA03F3013B1A4645
:1003E400BB681A407B699A4001217B6901FA03F3D7
:1003F400013B19467B680B40134318462437BD461E
:100404005DF8047B704780B582B000AF786078688F
:10041400FFF750FF00BF0837BD4680BD80B586B0EA
:1004240000AF0346B9607A60FB7300237B61FFF77A
:1004340065FF78617A68B9687869FFF7B1FF0246A9
:1004440097F90F3011461846FFF780FF00BF1837A1
:10045400BD4680BD80B582B000AF0346FB7197F9FD
:1004640007301846FFF758FF00BF0837BD4680BD68
:1004740080B489B000AF7860396000237B610023C9
:100484003B610023BB610023FB6165E10122FB6941
:1004940002FA03F37B613B681A687B6913403B6192
:1004A4003A697B699A4240F054813B685B68022B4D
:1004B40003D03B685B68122B23D1FB69DA087B68A5
:1004C400083253F82230BB61FB6903F007039B0039
:1004D4000F2202FA03F3DB43BA691340BB613B68A2
:1004E4001A69FB6903F007039B0002FA03F3BA6974
:1004F4001343BB61FB69DA087B680832B96943F8C6
:1005040022107B681B68BB61FB695B00032202FA53
:1005140003F3DB43BA691340BB613B685B6803F0D8
:100524000302FB695B0002FA03F3BA691343BB617C
:100534007B68BA691A603B685B68012B0BD03B6827
:100544005B68022B07D03B685B68112B03D03B68C8
:100554005B68122B30D17B689B68BB61FB695B00D5
:10056400032202FA03F3DB43BA691340BB613B681D
:10057400DA68FB695B0002FA03F3BA691343BB61EF
:100584007B68BA699A607B685B68BB610122FB691E
:1005940002FA03F3DB43BA691340BB613B685B684F
:1005A4001B0903F00102FB6902FA03F3BA6913435E
:1005B400BB617B68BA695A607B68DB68BB61FB69B5
:1005C4005B00032202FA03F3DB43BA691340BB6105
:1005D4003B689A68FB695B0002FA03F3BA69134348
:1005E400BB617B68BA69DA603B685B6803F080537F
:1005F400002B00F0AE800023FB605C4A5B4B5B6C1D
:1006040043F480435364594B5B6C03F48043FB60B5
:10061400FB68574AFB699B08023352F82330BB61DD
:10062400FB6903F003039B000F2202FA03F3DB438D
:10063400BA691340BB617B684E4A934225D07B68FC
:100644004D4A93421FD07B684C4A934219D07B6831
:100654004B4A934213D07B684A4A93420DD07B683D
:10066400494A934207D07B68484A934201D1062302
:100674000CE007230AE0052308E0042306E0032333
:1006840004E0022302E0012300E00023FA6902F0FF
:10069400030292009340BA691343BB613449FB6976
:1006A4009B080233BA6941F82320394B1B68BB61AC
:1006B4003B69DB43BA691340BB613B685B6803F485
:1006C4008033002B03D0BA693B691343BB61304AC2
:1006D400BB6913602E4B5B68BB613B69DB43BA6942
:1006E4001340BB613B685B6803F40033002B03D009
:1006F400BA693B691343BB61254ABB695360244B08
:100704009B68BB613B69DB43BA691340BB613B68CF
:100714005B6803F48013002B03D0BA693B6913436D
:10072400BB611B4ABB699360194BDB68BB613B69C6
:10073400DB43BA691340BB613B685B6803F4001395
:10074400002B03D0BA693B691343BB61104ABB69F0
:10075400D360FB690133FB61FB690F2B7FF696AE17
:1007640000BF2437BD465DF8047B70470038024063
:10077400003801400000024000040240000802402A
:10078400000C024000100240001402400018024015
:10079400003C014080B483B000AF78600B467B809E
:1007A4007B685A697B885A407B685A6100BF0C3762
:1007B400BD465DF8047B704780B400AF00BFBD4602
:1007C4005DF8047B7047000080B588B000AF7860A6
:1007D40039600023FB61844B1B6803F00F023B6804
:1007E4009A420CD2804B3A68D2B21A707E4B1B6884
:1007F40003F00F023B689A4201D00123EFE07B68CB
:100804001B6803F00203002B08D07849774B9B68E0
:1008140023F0F0027B689B6813438B607B681B6842
:1008240003F00103002B00F086807B685B68012BDA
:1008340007D16E4B1B6803F40033002B19D101233D
:10084400CDE07B685B68022B03D07B685B68032B7D
:1008540007D1664B1B6803F00073002B09D10123F9
:10086400BDE0624B1B6803F00203002B01D101239E
:10087400B5E05E495D4B9B6823F003027B685B68CF
:1008840013438B60FFF7ECFCF8617B685B68012B1A
:1008940012D10AE0FFF7E4FC0246FB69D31A41F2E5
:1008A4008832934201D9032399E0504B9B6803F0AB
:1008B4000C03042BEED13EE07B685B68022B12D163
:1008C4000AE0FFF7CDFC0246FB69D31A41F28832F5
:1008D400934201D9032382E0444B9B6803F00C0349
:1008E400082BEED127E07B685B68032B1DD10AE05F
:1008F400FFF7B6FC0246FB69D31A41F288329342F1
:1009040001D903236BE0394B9B6803F00C030C2BD8
:10091400EED110E0FFF7A4FC0246FB69D31A41F2C2
:100924008832934201D9032359E0304B9B6803F08A
:100934000C03002BEED12C4B1B6803F00F023B6819
:100944009A420CD9284B3A68D2B21A70264B1B68CB
:1009540003F00F023B689A4201D001233FE07B6819
:100964001B6803F00403002B08D020491F4B9B682D
:1009740023F4E0527B68DB6813438B607B681B685D
:1009840003F00803002B09D01849184B9B6823F483
:1009940060427B681B69DB0013438B6000F092F8B4
:1009A4000146124B9B6803F0F003F0223A613A6966
:1009B40092FAA2F2FA60FA68BA61BA69B2FA82F2F9
:1009C4007A617A69D2B2D340094AD35CDBB221FAA4
:1009D40003F3084A13600F2000F056FE0023184664
:1009E4002037BD4680BD00BF003C024000380240B5
:1009F400040000200000002080B400AF034B1B68FB
:100A04001846BD465DF8047B704700BF0000002017
:100A140080B584B000AFFFF7EFFF01460E4B9B6833
:100A240003F4E0534FF4E0527A607A6892FAA2F247
:100A34003A603A68FA60FA68B2FA82F2BA60BA685E
:100A4400D2B2D340054AD35CDBB221FA03F3184691
:100A54001037BD4680BD00BF0038024004000020AE
:100A640080B483B000AF786039607B680F221A606D
:100A7400124B9B6803F003027B685A600F4B9B6820
:100A840003F0F0027B689A600C4B9B6803F4E0521D
:100A94007B68DA60094B9B68DB0803F4E0527B68EF
:100AA4001A61074B1B6803F00F023B681A6000BF12
:100AB4000C37BD465DF8047B704700BF0038024028
:100AC400003C024080B49FB000AF0023FB660023CB
:100AD4007B670023BB6600237B6600233B677A4B5E
:100AE4009B6803F00C030C2B00F2E48001A252F883
:100AF40023F000BF2D0B0008B90C0008B90C000846
:100B0400B90C0008330B0008B90C0008B90C000834
:100B1400B90C0008390B0008B90C0008B90C00081E
:100B2400B90C0008FB0B0008684B3B67C5E0684B39
:100B34003B67C2E0644B5B6803F03F03FB66624BB8
:100B44005B6803F48003002B1CD0614AFB6EB2FB8C
:100B5400F3F25D4B596847F6C0730B4047F6C0711A
:100B6400B965B96D91FAA1F17965796D3966396E16
:100B7400B1FA81F1F965F96DC9B2CB4003FB02F317
:100B84007B671BE0514AFB6EB2FBF3F24E4B596894
:100B940047F6C0730B4047F6C071B964B96C91FA5B
:100BA400A1F17964796C3965396DB1FA81F1F9642F
:100BB400F96CC9B2CB4003FB02F37B67424B5B6821
:100BC40003F440334FF44032BA63BA6B92FAA2F2A0
:100BD4007A637A6B3A643A6CB2FA82F2FA63FA6B29
:100BE400D2B2D34001335B00BB667A6FBB6EB2FBFB
:100BF400F3F33B6761E0344B5B6803F03F03FB6650
:100C0400314B5B6803F48003002B1CD0304AFB6E2D
:100C1400B2FBF3F22C4B596847F6C0730B4047F60E
:100C2400C071B962B96A91FAA1F17962796A3963DA
:100C3400396BB1FA81F1F962F96AC9B2CB4003FBAD
:100C440002F37B671BE0214AFB6EB2FBF3F21E4BFF
:100C5400596847F6C0730B4047F6C071B961B9696A
:100C640091FAA1F1796179693962396AB1FA81F14C
:100C7400F961F969C9B2CB4003FB02F37B67124BFC
:100C84005B6803F0E0434FF0E042BA60BA6892FA5E
:100C9400A2F27A607A683A613A69B2FA82F2FA6048
:100CA400FA68D2B2D3407B667A6F7B6EB2FBF3F301
:100CB4003B6702E0054B3B6700BF3B6F18467C3740
:100CC400BD465DF8047B7047003802400024F40000
:100CD40040787D0180B59CB000AF78600023FB664E
:100CE4007B681B6803F00103002B00F08380A34B97
:100CF4009B6803F00C03042B19D0A04B9B6803F0F2
:100D04000C03082B06D19D4B5B6803F48003B3F5F9
:100D1400800F0CD0994B9B6803F00C030C2B12D161
:100D2400964B5B6803F48003B3F5800F0BD1934BB0
:100D34001B6803F40033002B5BD07B685B68002BDB
:100D440057D1012357E27B685B68B3F5803F06D136
:100D54008A4A8A4B1B6843F4803313601DE07B6826
:100D64005B68B3F5A02F0CD1844A844B1B6843F411
:100D740080231360814A814B1B6843F480331360E2
:100D84000BE07E4A7D4B1B6823F4803313607B4A5F
:100D94007A4B1B6823F4802313607B685B68002B09
:100DA40013D0FFF75DFAF86608E0FFF759FA024638
:100DB400FB6ED31A642B01D903231CE26F4B1B680F
:100DC40003F40033002BF0D014E0FFF749FAF8667F
:100DD40008E0FFF745FA0246FB6ED31A642B01D9EB
:100DE400032308E2654B1B6803F40033002BF0D1A6
:100DF40000E000BF7B681B6803F00203002B00F0D7
:100E04008C805E4B9B6803F00C03002B17D05B4B6C
:100E14009B6803F00C03082B05D1584B5B6803F463
:100E24008003002B0BD0554B9B6803F00C030C2B59
:100E34002AD1524B5B6803F48003002B24D14F4B1F
:100E44001B6803F00203002B05D07B68DB68012BD1
:100E540001D00123CFE14948484B1B6823F0F80235
:100E64007B681B69F8213966396E91FAA1F1F9653D
:100E7400F96DB966B96EB1FA81F17966796EC9B264
:100E84008B401343036048E07B68DB68002B2ED063
:100E94003B4B01221A60FFF7E3F9F86608E0FFF71D
:100EA400DFF90246FB6ED31A022B01D90323A2E118
:100EB400324B1B6803F00203002BF0D02F482F4B5A
:100EC4001B6823F0F8027B681B69F8213965396DCA
:100ED40091FAA1F1F964F96CB965B96DB1FA81F1CE
:100EE4007965796DC9B28B401343036015E0244BD7
:100EF40000221A60FFF7B4F9F86608E0FFF7B0F9CA
:100F04000246FB6ED31A022B01D9032373E11B4B58
:100F14001B6803F00203002BF0D17B681B6803F00D
:100F24000803002B36D07B685B69002B16D0154B69
:100F340001221A60FFF794F9F86608E0FFF790F9C8
:100F44000246FB6ED31A022B01D9032353E10B4B48
:100F54005B6F03F00203002BF0D01BE0094B00226F
:100F64001A60FFF77DF9F8660EE0FFF779F902469B
:100F7400FB6ED31A022B07D903233CE1003802404D
:100F840000004742800E47429D4B5B6F03F0020313
:100F9400002BEAD17B681B6803F00403002B7DD08F
:100FA4000023BB60964A964B1B6C43F0805313643A
:100FB400934B1B6C03F08053BB60BB68914A914B0D
:100FC4001B6843F480731360FFF74AF9F86608E07E
:100FD400FFF746F90246FB6ED31A022B01D903230D
:100FE40009E1884B1B6803F48073002BF0D07B6805
:100FF4009B68012B06D1824A814B1B6F43F001038E
:1010040013671CE07B689B68052B0CD17C4A7C4BE6
:101014001B6F43F004031367794A794B1B6F43F04A
:10102400010313670BE0764A754B1B6F23F0010332
:101034001367734A724B1B6F23F0040313677B68B7
:101044009B68002B15D0FFF70BF9F8660AE0FFF751
:1010540007F90246FB6ED31A41F28832934201D952
:101064000323C8E0664B1B6F03F00203002BEED092
:1010740014E0FFF7F5F8F8660AE0FFF7F1F8024626
:10108400FB6ED31A41F28832934201D90323B2E0B2
:101094005B4B1B6F03F00203002BEED17B689B6953
:1010A400002B00F0A780564B9B6803F00C03082B21
:1010B40000F09E807B689B69022B40F08280524B3B
:1010C40000221A60FFF7CCF8F86608E0FFF7C8F8CA
:1010D4000246FB6ED31A022B01D903238BE0484B43
:1010E4001B6803F00073002BF0D145487B68DA6974
:1010F4007B681B6A1A437B685B6A47F6C071396177
:10110400396991FAA1F1F960F968B961B969B1FA7B
:1011140081F179617969C9B28B401A437B689B6A12
:101124005B08013B4FF440313962396A91FAA1F10D
:10113400F961F969B962B96AB1FA81F17962796AD6
:10114400C9B28B401A437B68DB6A4FF07061396324
:10115400396B91FAA1F1F962F96AB963B96BB1FA21
:1011640081F17963796BC9B28B401A437B681B6B3D
:101174004FF0E0413964396C91FAA1F1F963F96BEC
:10118400B964B96CB1FA81F17964796CC9B28B40F4
:10119400134343601C4B01221A60FFF761F8F866A1
:1011A40008E0FFF75DF80246FB6ED31A022B01D963
:1011B400032320E0124B1B6803F00073002BF0D0D4
:1011C40018E0114B00221A60FFF74AF8F86608E0AD
:1011D400FFF746F80246FB6ED31A022B01D903230C
:1011E40009E0074B1B6803F00073002BF0D101E00A
:1011F400012300E0002318467037BD4680BD00BFC0
:1012040000380240007000406000474280B582B060
:1012140000AF78607B68002B01D101231DE07B685F
:1012240093F83930DBB2002B06D17B68002283F8B7
:101234003820786800F015F87B68022283F839209A
:101244007B681A687B6804331946104600F05EF91F
:101254007B68012283F83920002318460837BD46ED
:1012640080BD80B483B000AF786000BF0C37BD464A
:101274005DF8047B704780B483B000AF78607B680E
:101284001B687A681268D26842F00102DA607B68EF
:101294001B687A681268126842F001021A6000231F
:1012A40018460C37BD465DF8047B704780B582B0A4
:1012B40000AF78607B681B681B6903F00203022B94
:1012C40022D17B681B68DB6803F00203022B1BD16D
:1012D4007B681B686FF002021A617B6801221A7630
:1012E4007B681B689B6903F00303002B03D07868B9
:1012F40000F0EEF805E0786800F0E0F8786800F0B7
:10130400F1F87B6800221A767B681B681B6903F07E
:101314000403042B22D17B681B68DB6803F00403FD
:10132400042B1BD17B681B686FF004021A617B6875
:1013340002221A767B681B689B6903F44073002BB6
:1013440003D0786800F0C4F805E0786800F0B6F8D7
:10135400786800F0C7F87B6800221A767B681B68FF
:101364001B6903F00803082B22D17B681B68DB6828
:1013740003F00803082B1BD17B681B686FF008027D
:101384001A617B6804221A767B681B68DB6903F0A8
:101394000303002B03D0786800F09AF805E078681E
:1013A40000F08CF8786800F09DF87B6800221A76CB
:1013B4007B681B681B6903F01003102B22D17B6828
:1013C4001B68DB6803F01003102B1BD17B681B68C0
:1013D4006FF010021A617B6808221A767B681B681A
:1013E400DB6903F44073002B03D0786800F070F8D5
:1013F40005E0786800F062F8786800F073F87B68BC
:1014040000221A767B681B681B6903F00103012B19
:101414000ED17B681B68DB6803F00103012B07D145
:101424007B681B686FF001021A61786800F090F91C
:101434007B681B681B6903F08003802B0ED17B68DB
:101444001B68DB6803F08003802B07D17B681B6873
:101454006FF080021A61786800F00CF97B681B68F1
:101464001B6903F04003402B0ED17B681B68DB68CB
:1014740003F04003402B07D17B681B686FF04002E8
:101484001A61786800F038F87B681B681B6903F000
:101494002003202B0ED17B681B68DB6803F020033C
:1014A400202B07D17B681B686FF020021A617868D3
:1014B40000F0D6F800BF0837BD4680BD80B483B0C5
:1014C40000AF786000BF0C37BD465DF8047B704701
:1014D40080B483B000AF786000BF0C37BD465DF8C0
:1014E400047B704780B483B000AF786000BF0C37D2
:1014F400BD465DF8047B704780B483B000AF78606C
:1015040000BF0C37BD465DF8047B704780B485B0DE
:1015140000AF786039600023FB607B681B68FB6068
:101524007B68444A934213D07B68B3F1804F0FD059
:101534007B68414A93420BD07B68404A934207D070
:101544007B683F4A934203D07B683E4A934201D171
:10155400012300E00023002B08D0FB6823F0700374
:10156400FB603B685B68FA681343FB607B68314A45
:1015740093422BD07B68B3F1804F27D07B682E4AEF
:10158400934223D07B682D4A93421FD07B682C4A18
:1015940093421BD07B682B4A934217D07B682A4A1C
:1015A400934213D07B68294A93420FD07B68284A20
:1015B40093420BD07B68274A934207D07B68264A24
:1015C400934203D07B68254A934201D1012300E072
:1015D4000023002B08D0FB6823F44073FB603B68B6
:1015E400DB68FA681343FB607B68FA681A603B683F
:1015F4009A687B68DA623B681A687B689A627B68DF
:101604000C4A934203D07B680E4A934201D10123D2
:1016140000E00023002B03D03B681A697B681A633F
:101624007B6801225A6100BF1437BD465DF8047B14
:10163400704700BF00000140000400400008004063
:10164400000C0040000401400040014000440140FF
:101654000048014000180040001C004000200040E9
:1016640080B483B000AF786000BF0C37BD465DF82E
:10167400047B704780B483B000AF786000BF0C3740
:10168400BD465DF8047B704780B58CB000AF7860D0
:101694000023BB6200237B62002279683620FEF7B8
:1016A400BDFE3620FEF7D6FE0023BB60244A244B41
:1016B4001B6C43F010031364214B1B6C03F01003E9
:1016C400BB60BB6807F10C0207F110031146184612
:1016D400FFF7C6F9FB69BB62BB6A002B03D1FFF7B6
:1016E40097F9F86204E0FFF793F903465B00FB62A5
:1016F400FB6A144AA2FB03239B0C013B7B62124B43
:10170400124A1A60104B40F2E732DA600E4A7B6AE2
:1017140053600D4B00221A610B4B00229A600A4859
:10172400FFF774FD0346002B04D10748FFF7A3FD20
:10173400034600E0012318463037BD4680BD00BF94
:101744000038024083DE1B433400002000100040B8
:1017540080B582B000AF7860FEF774FD00BF083733
:10176400BD4680BD80B500AF0248FFF79FFD00BFB6
:1017740080BD00BF3400002080B594B000AF07F1F5
:101784001C0334220021184600F016F907F108035F
:1017940000221A605A609A60DA601A6100237B6042
:1017A400234A234B1B6C43F080531364204B1B6C64
:1017B40003F080537B607B6800233B601D4A1D4B14
:1017C4001B6823F4404343F400431360194B1B6824
:1017D40003F440433B603B680223FB610123BB628B
:1017E40002237B630023BB631023FB634FF4A873C2
:1017F4003B6404237B640723BB6407F11C03184682
:10180400FFF768FA0F23BB600223FB6000233B61F0
:101814004FF480537B610023BB6107F1080302216D
:101824001846FEF7D1FF00BF5037BD4680BD00BF4C
:10183400003802400070004080B588B000AF00233B
:10184400FB61FEF7DDFCFFF797FF00237B60164A80
:10185400154B1B6B43F001031363134B1B6B03F01A
:1018640001037B607B6807F1080300221A605A6059
:101874009A60DA601A612023BB600123FB600023B5
:101884003B6100237B6107F1080319460748FEF713
:10189400EFFDFB690133FB6120210448FEF77AFF69
:1018A400FA20FEF7E9FCF4E70038024000000240A9
:1018B400DFF834D0002103E00C4B5B584350043173
:1018C4000B480C4B42189A42F6D30B4A02E0002311
:1018D40042F8043B094B9A42F9D300F013F800F0A4
:1018E40047F8FFF7A9FF704700000220EC19000831
:1018F40000000020140000201400002070000020CC
:10190400FEE7000080B400AF164A164BD3F88830C7
:1019140043F47003C2F88830134A134B1B6843F036
:1019240001031360104B00229A600F4A0E4B1B6890
:1019340023F0847323F4803313600B4B0B4A5A60F7
:10194400094A094B1B6823F480231360064B0022C9
:10195400DA60044B4FF000629A6000BFBD465DF848
:10196400047B704700ED00E0003802401030002492
:1019740070B50D4E0D4CA41BA4100025A54209D131
:101984000B4E0C4C00F020F8A41BA4100025A5421B
:1019940005D170BD56F8253098470135EEE756F865
:1019A400253098470135F2E7E4190008E4190008E6
:1019B400E4190008E819000802440346934200D1E0
:1019C400704703F8011BF9E7F8B500BFF8BC08BC81
:1019D4009E467047F8B500BFF8BC08BC9E467047E9
:0419E400E90100080D
:0419E800C50100082D
:1019EC000024F400000000000000000001020304C9
:0419FC0006070809C9
:04000005080018B522
:00000001FF
